{
  "_format": "hh-sol-artifact-1",
  "contractName": "BlockFundFactory",
  "sourceName": "contracts/BlockFundFactory.sol",
  "abi": [
    {
      "anonymous": false,
      "inputs": [
        {
          "indexed": false,
          "internalType": "address",
          "name": "campaignAddress",
          "type": "address"
        },
        {
          "indexed": false,
          "internalType": "address",
          "name": "creator",
          "type": "address"
        }
      ],
      "name": "CampaignCreated",
      "type": "event"
    },
    {
      "inputs": [
        {
          "internalType": "uint256",
          "name": "goal",
          "type": "uint256"
        },
        {
          "internalType": "uint256",
          "name": "durationInDays",
          "type": "uint256"
        },
        {
          "internalType": "string[]",
          "name": "milestoneNames",
          "type": "string[]"
        },
        {
          "internalType": "uint256[]",
          "name": "milestonePercents",
          "type": "uint256[]"
        }
      ],
      "name": "createCampaign",
      "outputs": [],
      "stateMutability": "nonpayable",
      "type": "function"
    },
    {
      "inputs": [
        {
          "internalType": "uint256",
          "name": "",
          "type": "uint256"
        }
      ],
      "name": "deployedCampaigns",
      "outputs": [
        {
          "internalType": "address",
          "name": "",
          "type": "address"
        }
      ],
      "stateMutability": "view",
      "type": "function"
    },
    {
      "inputs": [],
      "name": "getCampaignCount",
      "outputs": [
        {
          "internalType": "uint256",
          "name": "",
          "type": "uint256"
        }
      ],
      "stateMutability": "view",
      "type": "function"
    },
    {
      "inputs": [],
      "name": "getDeployedCampaigns",
      "outputs": [
        {
          "internalType": "address[]",
          "name": "",
          "type": "address[]"
        }
      ],
      "stateMutability": "view",
      "type": "function"
    }
  ],
  "bytecode": "0x608060405234801561001057600080fd5b50613b2c806100206000396000f3fe60806040523480156200001157600080fd5b5060043610620000525760003560e01c80630bcb45331462000057578063339d50a514620000775780634acb9d4f14620000ad5780636caa921814620000cf575b600080fd5b6200007560048036038101906200006f919062000648565b620000f1565b005b6200009560048036038101906200008f9190620006f8565b620001db565b604051620000a491906200076f565b60405180910390f35b620000b76200021b565b604051620000c691906200085a565b60405180910390f35b620000d9620002ab565b604051620000e891906200088f565b60405180910390f35b600033858585856040516200010690620002b7565b6200011695949392919062000ad3565b604051809103906000f08015801562000133573d6000803e3d6000fd5b5090506000819080600181540180825580915050600190039060005260206000200160009091909190916101000a81548173ffffffffffffffffffffffffffffffffffffffff021916908373ffffffffffffffffffffffffffffffffffffffff1602179055507f6056366dba45431fd6a8854ad9f2594942b02c4f2c3f6fbc329b3079b027b8b48133604051620001cc92919062000b3e565b60405180910390a15050505050565b60008181548110620001ec57600080fd5b906000526020600020016000915054906101000a900473ffffffffffffffffffffffffffffffffffffffff1681565b60606000805480602002602001604051908101604052809291908181526020018280548015620002a157602002820191906000526020600020905b8160009054906101000a900473ffffffffffffffffffffffffffffffffffffffff1673ffffffffffffffffffffffffffffffffffffffff168152602001906001019080831162000256575b5050505050905090565b60008080549050905090565b612f8b8062000b6c83390190565b6000604051905090565b600080fd5b600080fd5b6000819050919050565b620002ee81620002d9565b8114620002fa57600080fd5b50565b6000813590506200030e81620002e3565b92915050565b600080fd5b6000601f19601f8301169050919050565b7f4e487b7100000000000000000000000000000000000000000000000000000000600052604160045260246000fd5b620003648262000319565b810181811067ffffffffffffffff821117156200038657620003856200032a565b5b80604052505050565b60006200039b620002c5565b9050620003a9828262000359565b919050565b600067ffffffffffffffff821115620003cc57620003cb6200032a565b5b602082029050602081019050919050565b600080fd5b600080fd5b600067ffffffffffffffff8211156200040557620004046200032a565b5b620004108262000319565b9050602081019050919050565b82818337600083830152505050565b6000620004436200043d84620003e7565b6200038f565b905082815260208101848484011115620004625762000461620003e2565b5b6200046f8482856200041d565b509392505050565b600082601f8301126200048f576200048e62000314565b5b8135620004a18482602086016200042c565b91505092915050565b6000620004c1620004bb84620003ae565b6200038f565b90508083825260208201905060208402830185811115620004e757620004e6620003dd565b5b835b818110156200053557803567ffffffffffffffff81111562000510576200050f62000314565b5b8086016200051f898262000477565b85526020850194505050602081019050620004e9565b5050509392505050565b600082601f83011262000557576200055662000314565b5b813562000569848260208601620004aa565b91505092915050565b600067ffffffffffffffff82111562000590576200058f6200032a565b5b602082029050602081019050919050565b6000620005b8620005b28462000572565b6200038f565b90508083825260208201905060208402830185811115620005de57620005dd620003dd565b5b835b818110156200060b5780620005f68882620002fd565b845260208401935050602081019050620005e0565b5050509392505050565b600082601f8301126200062d576200062c62000314565b5b81356200063f848260208601620005a1565b91505092915050565b60008060008060808587031215620006655762000664620002cf565b5b60006200067587828801620002fd565b94505060206200068887828801620002fd565b935050604085013567ffffffffffffffff811115620006ac57620006ab620002d4565b5b620006ba878288016200053f565b925050606085013567ffffffffffffffff811115620006de57620006dd620002d4565b5b620006ec8782880162000615565b91505092959194509250565b600060208284031215620007115762000710620002cf565b5b60006200072184828501620002fd565b91505092915050565b600073ffffffffffffffffffffffffffffffffffffffff82169050919050565b600062000757826200072a565b9050919050565b62000769816200074a565b82525050565b60006020820190506200078660008301846200075e565b92915050565b600081519050919050565b600082825260208201905092915050565b6000819050602082019050919050565b620007c3816200074a565b82525050565b6000620007d78383620007b8565b60208301905092915050565b6000602082019050919050565b6000620007fd826200078c565b62000809818562000797565b93506200081683620007a8565b8060005b838110156200084d578151620008318882620007c9565b97506200083e83620007e3565b9250506001810190506200081a565b5085935050505092915050565b60006020820190508181036000830152620008768184620007f0565b905092915050565b6200088981620002d9565b82525050565b6000602082019050620008a660008301846200087e565b92915050565b600081519050919050565b600082825260208201905092915050565b6000819050602082019050919050565b600081519050919050565b600082825260208201905092915050565b60005b8381101562000914578082015181840152602081019050620008f7565b60008484015250505050565b60006200092d82620008d8565b620009398185620008e3565b93506200094b818560208601620008f4565b620009568162000319565b840191505092915050565b60006200096f838362000920565b905092915050565b6000602082019050919050565b60006200099182620008ac565b6200099d8185620008b7565b935083602082028501620009b185620008c8565b8060005b85811015620009f35784840389528151620009d1858262000961565b9450620009de8362000977565b925060208a01995050600181019050620009b5565b50829750879550505050505092915050565b600081519050919050565b600082825260208201905092915050565b6000819050602082019050919050565b62000a3c81620002d9565b82525050565b600062000a50838362000a31565b60208301905092915050565b6000602082019050919050565b600062000a768262000a05565b62000a82818562000a10565b935062000a8f8362000a21565b8060005b8381101562000ac657815162000aaa888262000a42565b975062000ab78362000a5c565b92505060018101905062000a93565b5085935050505092915050565b600060a08201905062000aea60008301886200075e565b62000af960208301876200087e565b62000b0860408301866200087e565b818103606083015262000b1c818562000984565b9050818103608083015262000b32818462000a69565b90509695505050505050565b600060408201905062000b5560008301856200075e565b62000b6460208301846200075e565b939250505056fe60806040523480156200001157600080fd5b5060405162002f8b38038062002f8b8339818101604052810190620000379190620006b5565b80518251146200007e576040517f08c379a00000000000000000000000000000000000000000000000000000000081526004016200007590620007dc565b60405180910390fd5b6000825111620000c5576040517f08c379a0000000000000000000000000000000000000000000000000000000008152600401620000bc906200084e565b60405180910390fd5b6000805b82518110156200011657828181518110620000e957620000e862000870565b5b602002602001015182620000fe9190620008ce565b915080806200010d9062000909565b915050620000c9565b50606481146200015d576040517f08c379a00000000000000000000000000000000000000000000000000000000081526004016200015490620009cc565b60405180910390fd5b856000806101000a81548173ffffffffffffffffffffffffffffffffffffffff021916908373ffffffffffffffffffffffffffffffffffffffff160217905550846001819055506201518084620001b59190620009ee565b42620001c29190620008ce565b600281905550825160088190555060005b8351811015620002a35760006009600083815260200190815260200160002090508482815181106200020a576200020962000870565b5b602002602001015181600001908162000224919062000c7a565b508382815181106200023b576200023a62000870565b5b60200260200101518160010181905550606484838151811062000263576200026262000870565b5b602002602001015188620002789190620009ee565b62000284919062000d90565b81600201819055505080806200029a9062000909565b915050620001d3565b5050505050505062000dc8565b6000604051905090565b600080fd5b600080fd5b600073ffffffffffffffffffffffffffffffffffffffff82169050919050565b6000620002f182620002c4565b9050919050565b6200030381620002e4565b81146200030f57600080fd5b50565b6000815190506200032381620002f8565b92915050565b6000819050919050565b6200033e8162000329565b81146200034a57600080fd5b50565b6000815190506200035e8162000333565b92915050565b600080fd5b6000601f19601f8301169050919050565b7f4e487b7100000000000000000000000000000000000000000000000000000000600052604160045260246000fd5b620003b48262000369565b810181811067ffffffffffffffff82111715620003d657620003d56200037a565b5b80604052505050565b6000620003eb620002b0565b9050620003f98282620003a9565b919050565b600067ffffffffffffffff8211156200041c576200041b6200037a565b5b602082029050602081019050919050565b600080fd5b600080fd5b600067ffffffffffffffff8211156200045557620004546200037a565b5b620004608262000369565b9050602081019050919050565b60005b838110156200048d57808201518184015260208101905062000470565b60008484015250505050565b6000620004b0620004aa8462000437565b620003df565b905082815260208101848484011115620004cf57620004ce62000432565b5b620004dc8482856200046d565b509392505050565b600082601f830112620004fc57620004fb62000364565b5b81516200050e84826020860162000499565b91505092915050565b60006200052e6200052884620003fe565b620003df565b905080838252602082019050602084028301858111156200055457620005536200042d565b5b835b81811015620005a257805167ffffffffffffffff8111156200057d576200057c62000364565b5b8086016200058c8982620004e4565b8552602085019450505060208101905062000556565b5050509392505050565b600082601f830112620005c457620005c362000364565b5b8151620005d684826020860162000517565b91505092915050565b600067ffffffffffffffff821115620005fd57620005fc6200037a565b5b602082029050602081019050919050565b6000620006256200061f84620005df565b620003df565b905080838252602082019050602084028301858111156200064b576200064a6200042d565b5b835b818110156200067857806200066388826200034d565b8452602084019350506020810190506200064d565b5050509392505050565b600082601f8301126200069a576200069962000364565b5b8151620006ac8482602086016200060e565b91505092915050565b600080600080600060a08688031215620006d457620006d3620002ba565b5b6000620006e48882890162000312565b9550506020620006f7888289016200034d565b94505060406200070a888289016200034d565b935050606086015167ffffffffffffffff8111156200072e576200072d620002bf565b5b6200073c88828901620005ac565b925050608086015167ffffffffffffffff81111562000760576200075f620002bf565b5b6200076e8882890162000682565b9150509295509295909350565b600082825260208201905092915050565b7f4d696c6573746f6e6520617272617973206d757374206d617463680000000000600082015250565b6000620007c4601b836200077b565b9150620007d1826200078c565b602082019050919050565b60006020820190508181036000830152620007f781620007b5565b9050919050565b7f4174206c65617374206f6e65206d696c6573746f6e6520726571756972656400600082015250565b600062000836601f836200077b565b91506200084382620007fe565b602082019050919050565b60006020820190508181036000830152620008698162000827565b9050919050565b7f4e487b7100000000000000000000000000000000000000000000000000000000600052603260045260246000fd5b7f4e487b7100000000000000000000000000000000000000000000000000000000600052601160045260246000fd5b6000620008db8262000329565b9150620008e88362000329565b92508282019050808211156200090357620009026200089f565b5b92915050565b6000620009168262000329565b91507fffffffffffffffffffffffffffffffffffffffffffffffffffffffffffffffff82036200094b576200094a6200089f565b5b600182019050919050565b7f4d696c6573746f6e652070657263656e7461676573206d75737420746f74616c60008201527f2031303000000000000000000000000000000000000000000000000000000000602082015250565b6000620009b46024836200077b565b9150620009c18262000956565b604082019050919050565b60006020820190508181036000830152620009e781620009a5565b9050919050565b6000620009fb8262000329565b915062000a088362000329565b925082820262000a188162000329565b9150828204841483151762000a325762000a316200089f565b5b5092915050565b600081519050919050565b7f4e487b7100000000000000000000000000000000000000000000000000000000600052602260045260246000fd5b6000600282049050600182168062000a8c57607f821691505b60208210810362000aa25762000aa162000a44565b5b50919050565b60008190508160005260206000209050919050565b60006020601f8301049050919050565b600082821b905092915050565b60006008830262000b0c7fffffffffffffffffffffffffffffffffffffffffffffffffffffffffffffffff8262000acd565b62000b18868362000acd565b95508019841693508086168417925050509392505050565b6000819050919050565b600062000b5b62000b5562000b4f8462000329565b62000b30565b62000329565b9050919050565b6000819050919050565b62000b778362000b3a565b62000b8f62000b868262000b62565b84845462000ada565b825550505050565b600090565b62000ba662000b97565b62000bb381848462000b6c565b505050565b5b8181101562000bdb5762000bcf60008262000b9c565b60018101905062000bb9565b5050565b601f82111562000c2a5762000bf48162000aa8565b62000bff8462000abd565b8101602085101562000c0f578190505b62000c2762000c1e8562000abd565b83018262000bb8565b50505b505050565b600082821c905092915050565b600062000c4f6000198460080262000c2f565b1980831691505092915050565b600062000c6a838362000c3c565b9150826002028217905092915050565b62000c858262000a39565b67ffffffffffffffff81111562000ca15762000ca06200037a565b5b62000cad825462000a73565b62000cba82828562000bdf565b600060209050601f83116001811462000cf2576000841562000cdd578287015190505b62000ce9858262000c5c565b86555062000d59565b601f19841662000d028662000aa8565b60005b8281101562000d2c5784890151825560018201915060208501945060208101905062000d05565b8683101562000d4c578489015162000d48601f89168262000c3c565b8355505b6001600288020188555050505b505050505050565b7f4e487b7100000000000000000000000000000000000000000000000000000000600052601260045260246000fd5b600062000d9d8262000329565b915062000daa8362000329565b92508262000dbd5762000dbc62000d61565b5b828204905092915050565b6121b38062000dd86000396000f3fe6080604052600436106101145760003560e01c806343859632116100a0578063b3f05b9711610064578063b3f05b97146103a6578063c5c4744c146103d1578063d7e64c00146103fc578063e89e4ed614610427578063e8b5e51f1461046957610114565b806343859632146102d5578063566aaaee1461031257806357ded8021461033b578063590e1ae314610364578063b2f5a54c1461037b57610114565b80632442e1cb116100e75780632442e1cb146101c357806329dcb0cf146102055780633feb5f2b14610230578063401938831461026d57806342e94c901461029857610114565b806302d05d3f146101195780630681ca55146101445780630a8616da1461016f57806322f3e2d414610198575b600080fd5b34801561012557600080fd5b5061012e610473565b60405161013b919061152a565b60405180910390f35b34801561015057600080fd5b50610159610497565b604051610166919061155e565b60405180910390f35b34801561017b57600080fd5b50610196600480360381019061019191906115aa565b61049d565b005b3480156101a457600080fd5b506101ad610678565b6040516101ba91906115f2565b60405180910390f35b3480156101cf57600080fd5b506101ea60048036038101906101e591906115aa565b61069d565b6040516101fc9695949392919061169d565b60405180910390f35b34801561021157600080fd5b5061021a6107db565b604051610227919061155e565b60405180910390f35b34801561023c57600080fd5b50610257600480360381019061025291906115aa565b6107e1565b604051610264919061152a565b60405180910390f35b34801561027957600080fd5b50610282610820565b60405161028f919061155e565b60405180910390f35b3480156102a457600080fd5b506102bf60048036038101906102ba9190611731565b610826565b6040516102cc919061155e565b60405180910390f35b3480156102e157600080fd5b506102fc60048036038101906102f7919061175e565b61083e565b60405161030991906115f2565b60405180910390f35b34801561031e57600080fd5b50610339600480360381019061033491906115aa565b6108a9565b005b34801561034757600080fd5b50610362600480360381019061035d91906115aa565b610be6565b005b34801561037057600080fd5b50610379610eb1565b005b34801561038757600080fd5b50610390611105565b60405161039d919061185c565b60405180910390f35b3480156103b257600080fd5b506103bb611193565b6040516103c891906115f2565b60405180910390f35b3480156103dd57600080fd5b506103e66111a6565b6040516103f3919061155e565b60405180910390f35b34801561040857600080fd5b506104116111ac565b60405161041e919061155e565b60405180910390f35b34801561043357600080fd5b5061044e600480360381019061044991906115aa565b6111b2565b6040516104609695949392919061169d565b60405180910390f35b610471611290565b005b60008054906101000a900473ffffffffffffffffffffffffffffffffffffffff1681565b60085481565b60008054906101000a900473ffffffffffffffffffffffffffffffffffffffff1673ffffffffffffffffffffffffffffffffffffffff163373ffffffffffffffffffffffffffffffffffffffff161461052b576040517f08c379a0000000000000000000000000000000000000000000000000000000008152600401610522906118f0565b60405180910390fd5b600854811061056f576040517f08c379a00000000000000000000000000000000000000000000000000000000081526004016105669061195c565b60405180910390fd5b60006009600083815260200190815260200160002090508060030160009054906101000a900460ff16156105d8576040517f08c379a00000000000000000000000000000000000000000000000000000000081526004016105cf906119c8565b60405180910390fd5b8060030160019054906101000a900460ff161561062a576040517f08c379a000000000000000000000000000000000000000000000000000000000815260040161062190611a34565b60405180910390fd5b60018160030160006101000a81548160ff021916908315150217905550817f2b8dae45bc4c7e58cce8e61833069b65e65b1be9086e93b3c8f5fc1d084d3b9560405160405180910390a25050565b6000600254421080156106985750600460009054906101000a900460ff16155b905090565b6060600080600080600060085487106106eb576040517f08c379a00000000000000000000000000000000000000000000000000000000081526004016106e29061195c565b60405180910390fd5b600060096000898152602001908152602001600020905080600001816001015482600201548360030160009054906101000a900460ff168460030160019054906101000a900460ff16856004015485805461074590611a83565b80601f016020809104026020016040519081016040528092919081815260200182805461077190611a83565b80156107be5780601f10610793576101008083540402835291602001916107be565b820191906000526020600020905b8154815290600101906020018083116107a157829003601f168201915b505050505095509650965096509650965096505091939550919395565b60025481565b600681815481106107f157600080fd5b906000526020600020016000915054906101000a900473ffffffffffffffffffffffffffffffffffffffff1681565b60015481565b60056020528060005260406000206000915090505481565b60006009600084815260200190815260200160002060050160008373ffffffffffffffffffffffffffffffffffffffff1673ffffffffffffffffffffffffffffffffffffffff16815260200190815260200160002060009054906101000a900460ff16905092915050565b60008054906101000a900473ffffffffffffffffffffffffffffffffffffffff1673ffffffffffffffffffffffffffffffffffffffff163373ffffffffffffffffffffffffffffffffffffffff1614610937576040517f08c379a000000000000000000000000000000000000000000000000000000000815260040161092e906118f0565b60405180910390fd5b600854811061097b576040517f08c379a00000000000000000000000000000000000000000000000000000000081526004016109729061195c565b60405180910390fd5b60006009600083815260200190815260200160002090508060030160009054906101000a900460ff166109e3576040517f08c379a00000000000000000000000000000000000000000000000000000000081526004016109da90611b00565b60405180910390fd5b8060030160019054906101000a900460ff1615610a35576040517f08c379a0000000000000000000000000000000000000000000000000000000008152600401610a2c90611a34565b60405180910390fd5b600060016002600754610a489190611b7e565b610a529190611baf565b90508082600401541015610a9b576040517f08c379a0000000000000000000000000000000000000000000000000000000008152600401610a9290611c55565b60405180910390fd5b60018260030160016101000a81548160ff021916908315150217905550600060648360010154600354610ace9190611c75565b610ad89190611b7e565b905060008060009054906101000a900473ffffffffffffffffffffffffffffffffffffffff1673ffffffffffffffffffffffffffffffffffffffff1682604051610b2190611ce8565b60006040518083038185875af1925050503d8060008114610b5e576040519150601f19603f3d011682016040523d82523d6000602084013e610b63565b606091505b5050905080610ba7576040517f08c379a0000000000000000000000000000000000000000000000000000000008152600401610b9e90611d49565b60405180910390fd5b847f676cdb410abe9cd0cfbe71bc12cda8a90b98d3d34c3badc20e03864b14ae6f4383604051610bd7919061155e565b60405180910390a25050505050565b6008548110610c2a576040517f08c379a0000000000000000000000000000000000000000000000000000000008152600401610c219061195c565b60405180910390fd5b6000600560003373ffffffffffffffffffffffffffffffffffffffff1673ffffffffffffffffffffffffffffffffffffffff1681526020019081526020016000205411610cac576040517f08c379a0000000000000000000000000000000000000000000000000000000008152600401610ca390611db5565b60405180910390fd5b60006009600083815260200190815260200160002090508060030160009054906101000a900460ff16610d14576040517f08c379a0000000000000000000000000000000000000000000000000000000008152600401610d0b90611b00565b60405180910390fd5b8060030160019054906101000a900460ff1615610d66576040517f08c379a0000000000000000000000000000000000000000000000000000000008152600401610d5d90611a34565b60405180910390fd5b8060050160003373ffffffffffffffffffffffffffffffffffffffff1673ffffffffffffffffffffffffffffffffffffffff16815260200190815260200160002060009054906101000a900460ff1615610df5576040517f08c379a0000000000000000000000000000000000000000000000000000000008152600401610dec90611e21565b60405180910390fd5b60018160050160003373ffffffffffffffffffffffffffffffffffffffff1673ffffffffffffffffffffffffffffffffffffffff16815260200190815260200160002060006101000a81548160ff021916908315150217905550806004016000815480929190610e6490611e41565b91905055503373ffffffffffffffffffffffffffffffffffffffff16827f6adeb3d71effb4aa3e5694a1e198537fdee35acec121631b4f4500642f95289660405160405180910390a35050565b6002544211610ef5576040517f08c379a0000000000000000000000000000000000000000000000000000000008152600401610eec90611ed5565b60405180910390fd5b60015460035410610f3b576040517f08c379a0000000000000000000000000000000000000000000000000000000008152600401610f3290611f41565b60405180910390fd5b6000600560003373ffffffffffffffffffffffffffffffffffffffff1673ffffffffffffffffffffffffffffffffffffffff16815260200190815260200160002054905060008111610fc2576040517f08c379a0000000000000000000000000000000000000000000000000000000008152600401610fb990611fad565b60405180910390fd5b6000600560003373ffffffffffffffffffffffffffffffffffffffff1673ffffffffffffffffffffffffffffffffffffffff1681526020019081526020016000208190555060003373ffffffffffffffffffffffffffffffffffffffff168260405161102d90611ce8565b60006040518083038185875af1925050503d806000811461106a576040519150601f19603f3d011682016040523d82523d6000602084013e61106f565b606091505b50509050806110b3576040517f08c379a00000000000000000000000000000000000000000000000000000000081526004016110aa90612019565b60405180910390fd5b3373ffffffffffffffffffffffffffffffffffffffff167fa171b6942063c6f2800ce40a780edce37baa2b618571b11eedd1e69e626e7d76836040516110f9919061155e565b60405180910390a25050565b6060600680548060200260200160405190810160405280929190818152602001828054801561118957602002820191906000526020600020905b8160009054906101000a900473ffffffffffffffffffffffffffffffffffffffff1673ffffffffffffffffffffffffffffffffffffffff168152602001906001019080831161113f575b5050505050905090565b600460009054906101000a900460ff1681565b60035481565b60075481565b60096020528060005260406000206000915090508060000180546111d590611a83565b80601f016020809104026020016040519081016040528092919081815260200182805461120190611a83565b801561124e5780601f106112235761010080835404028352916020019161124e565b820191906000526020600020905b81548152906001019060200180831161123157829003601f168201915b5050505050908060010154908060020154908060030160009054906101000a900460ff16908060030160019054906101000a900460ff16908060040154905086565b60025442106112d4576040517f08c379a00000000000000000000000000000000000000000000000000000000081526004016112cb90612085565b60405180910390fd5b600460009054906101000a900460ff1615611324576040517f08c379a000000000000000000000000000000000000000000000000000000000815260040161131b906120f1565b60405180910390fd5b60003411611367576040517f08c379a000000000000000000000000000000000000000000000000000000000815260040161135e9061215d565b60405180910390fd5b6000600560003373ffffffffffffffffffffffffffffffffffffffff1673ffffffffffffffffffffffffffffffffffffffff168152602001908152602001600020540361142a576006339080600181540180825580915050600190039060005260206000200160009091909190916101000a81548173ffffffffffffffffffffffffffffffffffffffff021916908373ffffffffffffffffffffffffffffffffffffffff1602179055506007600081548092919061142490611e41565b91905055505b34600560003373ffffffffffffffffffffffffffffffffffffffff1673ffffffffffffffffffffffffffffffffffffffff16815260200190815260200160002060008282546114799190611baf565b9250508190555034600360008282546114929190611baf565b925050819055503373ffffffffffffffffffffffffffffffffffffffff167f07146ef3ff2146eaf34fa4d392d4c56663333b682654b3123bf270f9ec529f31346040516114df919061155e565b60405180910390a2565b600073ffffffffffffffffffffffffffffffffffffffff82169050919050565b6000611514826114e9565b9050919050565b61152481611509565b82525050565b600060208201905061153f600083018461151b565b92915050565b6000819050919050565b61155881611545565b82525050565b6000602082019050611573600083018461154f565b92915050565b600080fd5b61158781611545565b811461159257600080fd5b50565b6000813590506115a48161157e565b92915050565b6000602082840312156115c0576115bf611579565b5b60006115ce84828501611595565b91505092915050565b60008115159050919050565b6115ec816115d7565b82525050565b600060208201905061160760008301846115e3565b92915050565b600081519050919050565b600082825260208201905092915050565b60005b8381101561164757808201518184015260208101905061162c565b60008484015250505050565b6000601f19601f8301169050919050565b600061166f8261160d565b6116798185611618565b9350611689818560208601611629565b61169281611653565b840191505092915050565b600060c08201905081810360008301526116b78189611664565b90506116c6602083018861154f565b6116d3604083018761154f565b6116e060608301866115e3565b6116ed60808301856115e3565b6116fa60a083018461154f565b979650505050505050565b61170e81611509565b811461171957600080fd5b50565b60008135905061172b81611705565b92915050565b60006020828403121561174757611746611579565b5b60006117558482850161171c565b91505092915050565b6000806040838503121561177557611774611579565b5b600061178385828601611595565b92505060206117948582860161171c565b9150509250929050565b600081519050919050565b600082825260208201905092915050565b6000819050602082019050919050565b6117d381611509565b82525050565b60006117e583836117ca565b60208301905092915050565b6000602082019050919050565b60006118098261179e565b61181381856117a9565b935061181e836117ba565b8060005b8381101561184f57815161183688826117d9565b9750611841836117f1565b925050600181019050611822565b5085935050505092915050565b6000602082019050818103600083015261187681846117fe565b905092915050565b7f4f6e6c79207468652063616d706169676e2063726561746f722063616e20636160008201527f6c6c207468697300000000000000000000000000000000000000000000000000602082015250565b60006118da602783611618565b91506118e58261187e565b604082019050919050565b60006020820190508181036000830152611909816118cd565b9050919050565b7f496e76616c6964206d696c6573746f6e6520696e646578000000000000000000600082015250565b6000611946601783611618565b915061195182611910565b602082019050919050565b6000602082019050818103600083015261197581611939565b9050919050565b7f4d696c6573746f6e6520616c726561647920617070726f766564000000000000600082015250565b60006119b2601a83611618565b91506119bd8261197c565b602082019050919050565b600060208201905081810360008301526119e1816119a5565b9050919050565b7f4d696c6573746f6e6520616c7265616479206578656375746564000000000000600082015250565b6000611a1e601a83611618565b9150611a29826119e8565b602082019050919050565b60006020820190508181036000830152611a4d81611a11565b9050919050565b7f4e487b7100000000000000000000000000000000000000000000000000000000600052602260045260246000fd5b60006002820490506001821680611a9b57607f821691505b602082108103611aae57611aad611a54565b5b50919050565b7f4d696c6573746f6e65206e6f74207965742070726f706f736564000000000000600082015250565b6000611aea601a83611618565b9150611af582611ab4565b602082019050919050565b60006020820190508181036000830152611b1981611add565b9050919050565b7f4e487b7100000000000000000000000000000000000000000000000000000000600052601260045260246000fd5b7f4e487b7100000000000000000000000000000000000000000000000000000000600052601160045260246000fd5b6000611b8982611545565b9150611b9483611545565b925082611ba457611ba3611b20565b5b828204905092915050565b6000611bba82611545565b9150611bc583611545565b9250828201905080821115611bdd57611bdc611b4f565b5b92915050565b7f4e6f7420656e6f75676820766f74657320746f2065786563757465206d696c6560008201527f73746f6e65000000000000000000000000000000000000000000000000000000602082015250565b6000611c3f602583611618565b9150611c4a82611be3565b604082019050919050565b60006020820190508181036000830152611c6e81611c32565b9050919050565b6000611c8082611545565b9150611c8b83611545565b9250828202611c9981611545565b91508282048414831517611cb057611caf611b4f565b5b5092915050565b600081905092915050565b50565b6000611cd2600083611cb7565b9150611cdd82611cc2565b600082019050919050565b6000611cf382611cc5565b9150819050919050565b7f5472616e73666572206661696c65640000000000000000000000000000000000600082015250565b6000611d33600f83611618565b9150611d3e82611cfd565b602082019050919050565b60006020820190508181036000830152611d6281611d26565b9050919050565b7f4f6e6c7920696e766573746f72732063616e20766f7465000000000000000000600082015250565b6000611d9f601783611618565b9150611daa82611d69565b602082019050919050565b60006020820190508181036000830152611dce81611d92565b9050919050565b7f416c726561647920766f746564206f6e2074686973206d696c6573746f6e6500600082015250565b6000611e0b601f83611618565b9150611e1682611dd5565b602082019050919050565b60006020820190508181036000830152611e3a81611dfe565b9050919050565b6000611e4c82611545565b91507fffffffffffffffffffffffffffffffffffffffffffffffffffffffffffffffff8203611e7e57611e7d611b4f565b5b600182019050919050565b7f43616d706169676e206973207374696c6c206163746976650000000000000000600082015250565b6000611ebf601883611618565b9150611eca82611e89565b602082019050919050565b60006020820190508181036000830152611eee81611eb2565b9050919050565b7f476f616c2077617320726561636865642c206e6f20726566756e647300000000600082015250565b6000611f2b601c83611618565b9150611f3682611ef5565b602082019050919050565b60006020820190508181036000830152611f5a81611f1e565b9050919050565b7f4e6f20636f6e747269627574696f6e20746f20726566756e6400000000000000600082015250565b6000611f97601983611618565b9150611fa282611f61565b602082019050919050565b60006020820190508181036000830152611fc681611f8a565b9050919050565b7f526566756e64207472616e73666572206661696c656400000000000000000000600082015250565b6000612003601683611618565b915061200e82611fcd565b602082019050919050565b6000602082019050818103600083015261203281611ff6565b9050919050565b7f43616d706169676e2068617320656e6465640000000000000000000000000000600082015250565b600061206f601283611618565b915061207a82612039565b602082019050919050565b6000602082019050818103600083015261209e81612062565b9050919050565b7f43616d706169676e2069732066696e616c697a65640000000000000000000000600082015250565b60006120db601583611618565b91506120e6826120a5565b602082019050919050565b6000602082019050818103600083015261210a816120ce565b9050919050565b7f4d7573742073656e642045544820746f20696e76657374000000000000000000600082015250565b6000612147601783611618565b915061215282612111565b602082019050919050565b600060208201905081810360008301526121768161213a565b905091905056fea26469706673582212203cb11f32ab594cfd1267a03ba4561d9edc578306a19b03d6e97741c788332db164736f6c63430008130033a2646970667358221220707911c19c771a1eb1d71d531fa796e3d8b0889afb71357e1ecdab787d16116e64736f6c63430008130033",
  "linkReferences": {},
  "deployedLinkReferences": {}
}